{
  "contractName": "Tweet",
  "abi": [
    {
      "inputs": [],
      "stateMutability": "nonpayable",
      "type": "constructor"
    },
    {
      "inputs": [],
      "name": "Not_Enough_ETHs",
      "type": "error"
    },
    {
      "inputs": [
        {
          "internalType": "address",
          "name": "account",
          "type": "address"
        }
      ],
      "name": "getUser",
      "outputs": [
        {
          "components": [
            {
              "internalType": "address",
              "name": "account",
              "type": "address"
            },
            {
              "internalType": "string",
              "name": "name",
              "type": "string"
            },
            {
              "internalType": "string",
              "name": "photo",
              "type": "string"
            },
            {
              "internalType": "string",
              "name": "bio",
              "type": "string"
            },
            {
              "internalType": "string",
              "name": "backGroundPic",
              "type": "string"
            }
          ],
          "internalType": "struct Tweet.UserInfo",
          "name": "",
          "type": "tuple"
        }
      ],
      "stateMutability": "view",
      "type": "function"
    },
    {
      "inputs": [
        {
          "internalType": "string",
          "name": "name",
          "type": "string"
        },
        {
          "internalType": "string",
          "name": "photo",
          "type": "string"
        },
        {
          "internalType": "string",
          "name": "backGroundPic",
          "type": "string"
        },
        {
          "internalType": "string",
          "name": "bio",
          "type": "string"
        }
      ],
      "name": "modifyUserInfo",
      "outputs": [],
      "stateMutability": "nonpayable",
      "type": "function"
    },
    {
      "inputs": [
        {
          "internalType": "string",
          "name": "content",
          "type": "string"
        },
        {
          "internalType": "string",
          "name": "picOfTweet",
          "type": "string"
        },
        {
          "internalType": "uint256",
          "name": "timeofTweet",
          "type": "uint256"
        }
      ],
      "name": "tweet",
      "outputs": [],
      "stateMutability": "payable",
      "type": "function"
    },
    {
      "inputs": [
        {
          "internalType": "address",
          "name": "account",
          "type": "address"
        }
      ],
      "name": "queryTweetByAccount",
      "outputs": [
        {
          "components": [
            {
              "internalType": "address",
              "name": "account",
              "type": "address"
            },
            {
              "internalType": "string",
              "name": "photo",
              "type": "string"
            },
            {
              "internalType": "string",
              "name": "name",
              "type": "string"
            },
            {
              "internalType": "string",
              "name": "content",
              "type": "string"
            },
            {
              "internalType": "uint256",
              "name": "timeofTweet",
              "type": "uint256"
            },
            {
              "internalType": "string",
              "name": "picOfTweet",
              "type": "string"
            }
          ],
          "internalType": "struct Tweet.TweetDetail[]",
          "name": "",
          "type": "tuple[]"
        }
      ],
      "stateMutability": "view",
      "type": "function"
    },
    {
      "inputs": [],
      "name": "queryAllTweet",
      "outputs": [
        {
          "components": [
            {
              "internalType": "address",
              "name": "account",
              "type": "address"
            },
            {
              "internalType": "string",
              "name": "photo",
              "type": "string"
            },
            {
              "internalType": "string",
              "name": "name",
              "type": "string"
            },
            {
              "internalType": "string",
              "name": "content",
              "type": "string"
            },
            {
              "internalType": "uint256",
              "name": "timeofTweet",
              "type": "uint256"
            },
            {
              "internalType": "string",
              "name": "picOfTweet",
              "type": "string"
            }
          ],
          "internalType": "struct Tweet.TweetDetail[]",
          "name": "",
          "type": "tuple[]"
        }
      ],
      "stateMutability": "view",
      "type": "function"
    }
  ],
  "bytecode": "0x60a060405234801561001057600080fd5b503373ffffffffffffffffffffffffffffffffffffffff1660808173ffffffffffffffffffffffffffffffffffffffff1660601b8152505060805160601c611ba561006660003960006111c70152611ba56000f3fe60806040526004361061004a5760003560e01c806335da37921461004f5780633a3480e21461007a5780636f77926b146100b75780638b5c9371146100f4578063b199a21714610110575b600080fd5b34801561005b57600080fd5b50610064610139565b6040516100719190611847565b60405180910390f35b34801561008657600080fd5b506100a1600480360381019061009c91906114af565b6106e1565b6040516100ae9190611847565b60405180910390f35b3480156100c357600080fd5b506100de60048036038101906100d991906114af565b610d29565b6040516100eb9190611869565b60405180910390f35b61010e600480360381019061010991906115b3565b611020565b005b34801561011c57600080fd5b50610137600480360381019061013291906114dc565b611233565b005b60606000808054905067ffffffffffffffff81111561015b5761015a611aed565b5b60405190808252806020026020018201604052801561019457816020015b6101816112e1565b8152602001906001900390816101795790505b50905060005b6000805490508110156106d95760008082815481106101bc576101bb611abe565b5b90600052602060002090600402016040518060800160405290816000820180546101e5906119b4565b80601f0160208091040260200160405190810160405280929190818152602001828054610211906119b4565b801561025e5780601f106102335761010080835404028352916020019161025e565b820191906000526020600020905b81548152906001019060200180831161024157829003601f168201915b505050505081526020016001820160009054906101000a900473ffffffffffffffffffffffffffffffffffffffff1673ffffffffffffffffffffffffffffffffffffffff1673ffffffffffffffffffffffffffffffffffffffff1681526020016002820180546102cd906119b4565b80601f01602080910402602001604051908101604052809291908181526020018280546102f9906119b4565b80156103465780601f1061031b57610100808354040283529160200191610346565b820191906000526020600020905b81548152906001019060200180831161032957829003601f168201915b505050505081526020016003820154815250509050600060026000836020015173ffffffffffffffffffffffffffffffffffffffff1673ffffffffffffffffffffffffffffffffffffffff1681526020019081526020016000206040518060a00160405290816000820160009054906101000a900473ffffffffffffffffffffffffffffffffffffffff1673ffffffffffffffffffffffffffffffffffffffff1673ffffffffffffffffffffffffffffffffffffffff168152602001600182018054610411906119b4565b80601f016020809104026020016040519081016040528092919081815260200182805461043d906119b4565b801561048a5780601f1061045f5761010080835404028352916020019161048a565b820191906000526020600020905b81548152906001019060200180831161046d57829003601f168201915b505050505081526020016002820180546104a3906119b4565b80601f01602080910402602001604051908101604052809291908181526020018280546104cf906119b4565b801561051c5780601f106104f15761010080835404028352916020019161051c565b820191906000526020600020905b8154815290600101906020018083116104ff57829003601f168201915b50505050508152602001600382018054610535906119b4565b80601f0160208091040260200160405190810160405280929190818152602001828054610561906119b4565b80156105ae5780601f10610583576101008083540402835291602001916105ae565b820191906000526020600020905b81548152906001019060200180831161059157829003601f168201915b505050505081526020016004820180546105c7906119b4565b80601f01602080910402602001604051908101604052809291908181526020018280546105f3906119b4565b80156106405780601f1061061557610100808354040283529160200191610640565b820191906000526020600020905b81548152906001019060200180831161062357829003601f168201915b50505050508152505090506040518060c00160405280836020015173ffffffffffffffffffffffffffffffffffffffff1681526020018260400151815260200182602001518152602001836000015181526020018360600151815260200183604001518152508484815181106106b9576106b8611abe565b5b6020026020010181905250505080806106d190611a17565b91505061019a565b508091505090565b60606000600160008473ffffffffffffffffffffffffffffffffffffffff1673ffffffffffffffffffffffffffffffffffffffff16815260200190815260200160002080548060200260200160405190810160405280929190818152602001828054801561076e57602002820191906000526020600020905b81548152602001906001019080831161075a575b505050505090506000815167ffffffffffffffff81111561079257610791611aed565b5b6040519080825280602002602001820160405280156107cb57816020015b6107b86112e1565b8152602001906001900390816107b05790505b5090506000600260008673ffffffffffffffffffffffffffffffffffffffff1673ffffffffffffffffffffffffffffffffffffffff1681526020019081526020016000206040518060a00160405290816000820160009054906101000a900473ffffffffffffffffffffffffffffffffffffffff1673ffffffffffffffffffffffffffffffffffffffff1673ffffffffffffffffffffffffffffffffffffffff168152602001600182018054610880906119b4565b80601f01602080910402602001604051908101604052809291908181526020018280546108ac906119b4565b80156108f95780601f106108ce576101008083540402835291602001916108f9565b820191906000526020600020905b8154815290600101906020018083116108dc57829003601f168201915b50505050508152602001600282018054610912906119b4565b80601f016020809104026020016040519081016040528092919081815260200182805461093e906119b4565b801561098b5780601f106109605761010080835404028352916020019161098b565b820191906000526020600020905b81548152906001019060200180831161096e57829003601f168201915b505050505081526020016003820180546109a4906119b4565b80601f01602080910402602001604051908101604052809291908181526020018280546109d0906119b4565b8015610a1d5780601f106109f257610100808354040283529160200191610a1d565b820191906000526020600020905b815481529060010190602001808311610a0057829003601f168201915b50505050508152602001600482018054610a36906119b4565b80601f0160208091040260200160405190810160405280929190818152602001828054610a62906119b4565b8015610aaf5780601f10610a8457610100808354040283529160200191610aaf565b820191906000526020600020905b815481529060010190602001808311610a9257829003601f168201915b505050505081525050905060005b8351811015610d1d57600080858381518110610adc57610adb611abe565b5b602002602001015181548110610af557610af4611abe565b5b9060005260206000209060040201604051806080016040529081600082018054610b1e906119b4565b80601f0160208091040260200160405190810160405280929190818152602001828054610b4a906119b4565b8015610b975780601f10610b6c57610100808354040283529160200191610b97565b820191906000526020600020905b815481529060010190602001808311610b7a57829003601f168201915b505050505081526020016001820160009054906101000a900473ffffffffffffffffffffffffffffffffffffffff1673ffffffffffffffffffffffffffffffffffffffff1673ffffffffffffffffffffffffffffffffffffffff168152602001600282018054610c06906119b4565b80601f0160208091040260200160405190810160405280929190818152602001828054610c32906119b4565b8015610c7f5780601f10610c5457610100808354040283529160200191610c7f565b820191906000526020600020905b815481529060010190602001808311610c6257829003601f168201915b5050505050815260200160038201548152505090506040518060c001604052808873ffffffffffffffffffffffffffffffffffffffff168152602001846040015181526020018460200151815260200182600001518152602001826060015181526020018260400151815250848381518110610cfe57610cfd611abe565b5b6020026020010181905250508080610d1590611a17565b915050610abd565b50819350505050919050565b610d3161132d565b600260008373ffffffffffffffffffffffffffffffffffffffff1673ffffffffffffffffffffffffffffffffffffffff1681526020019081526020016000206040518060a00160405290816000820160009054906101000a900473ffffffffffffffffffffffffffffffffffffffff1673ffffffffffffffffffffffffffffffffffffffff1673ffffffffffffffffffffffffffffffffffffffff168152602001600182018054610de1906119b4565b80601f0160208091040260200160405190810160405280929190818152602001828054610e0d906119b4565b8015610e5a5780601f10610e2f57610100808354040283529160200191610e5a565b820191906000526020600020905b815481529060010190602001808311610e3d57829003601f168201915b50505050508152602001600282018054610e73906119b4565b80601f0160208091040260200160405190810160405280929190818152602001828054610e9f906119b4565b8015610eec5780601f10610ec157610100808354040283529160200191610eec565b820191906000526020600020905b815481529060010190602001808311610ecf57829003601f168201915b50505050508152602001600382018054610f05906119b4565b80601f0160208091040260200160405190810160405280929190818152602001828054610f31906119b4565b8015610f7e5780601f10610f5357610100808354040283529160200191610f7e565b820191906000526020600020905b815481529060010190602001808311610f6157829003601f168201915b50505050508152602001600482018054610f97906119b4565b80601f0160208091040260200160405190810160405280929190818152602001828054610fc3906119b4565b80156110105780601f10610fe557610100808354040283529160200191611010565b820191906000526020600020905b815481529060010190602001808311610ff357829003601f168201915b5050505050815250509050919050565b662386f26fc10000341015611061576040517faf19f18e00000000000000000000000000000000000000000000000000000000815260040160405180910390fd5b600060405180608001604052808581526020013373ffffffffffffffffffffffffffffffffffffffff1681526020018481526020018381525090506000600160003373ffffffffffffffffffffffffffffffffffffffff1673ffffffffffffffffffffffffffffffffffffffff168152602001908152602001600020905080600080549050908060018154018082558091505060019003906000526020600020016000909190919091505560008290806001815401808255809150506001900390600052602060002090600402016000909190919091506000820151816000019080519060200190611154929190611372565b5060208201518160010160006101000a81548173ffffffffffffffffffffffffffffffffffffffff021916908373ffffffffffffffffffffffffffffffffffffffff16021790555060408201518160020190805190602001906111b8929190611372565b506060820151816003015550507f000000000000000000000000000000000000000000000000000000000000000073ffffffffffffffffffffffffffffffffffffffff166108fc349081150290604051600060405180830381858888f1935050505015801561122b573d6000803e3d6000fd5b505050505050565b6000600260003373ffffffffffffffffffffffffffffffffffffffff1673ffffffffffffffffffffffffffffffffffffffff16815260200190815260200160002090508481600101908051906020019061128e929190611372565b50838160020190805190602001906112a7929190611372565b50828160040190805190602001906112c0929190611372565b50818160030190805190602001906112d9929190611372565b505050505050565b6040518060c00160405280600073ffffffffffffffffffffffffffffffffffffffff16815260200160608152602001606081526020016060815260200160008152602001606081525090565b6040518060a00160405280600073ffffffffffffffffffffffffffffffffffffffff168152602001606081526020016060815260200160608152602001606081525090565b82805461137e906119b4565b90600052602060002090601f0160209004810192826113a057600085556113e7565b82601f106113b957805160ff19168380011785556113e7565b828001600101855582156113e7579182015b828111156113e65782518255916020019190600101906113cb565b5b5090506113f491906113f8565b5090565b5b808211156114115760008160009055506001016113f9565b5090565b6000611428611423846118b0565b61188b565b90508281526020810184848401111561144457611443611b21565b5b61144f848285611972565b509392505050565b60008135905061146681611b41565b92915050565b600082601f83011261148157611480611b1c565b5b8135611491848260208601611415565b91505092915050565b6000813590506114a981611b58565b92915050565b6000602082840312156114c5576114c4611b2b565b5b60006114d384828501611457565b91505092915050565b600080600080608085870312156114f6576114f5611b2b565b5b600085013567ffffffffffffffff81111561151457611513611b26565b5b6115208782880161146c565b945050602085013567ffffffffffffffff81111561154157611540611b26565b5b61154d8782880161146c565b935050604085013567ffffffffffffffff81111561156e5761156d611b26565b5b61157a8782880161146c565b925050606085013567ffffffffffffffff81111561159b5761159a611b26565b5b6115a78782880161146c565b91505092959194509250565b6000806000606084860312156115cc576115cb611b2b565b5b600084013567ffffffffffffffff8111156115ea576115e9611b26565b5b6115f68682870161146c565b935050602084013567ffffffffffffffff81111561161757611616611b26565b5b6116238682870161146c565b92505060406116348682870161149a565b9150509250925092565b600061164a838361170f565b905092915050565b61165b81611936565b82525050565b600061166c826118f1565b6116768185611914565b935083602082028501611688856118e1565b8060005b858110156116c457848403895281516116a5858261163e565b94506116b083611907565b925060208a0199505060018101905061168c565b50829750879550505050505092915050565b60006116e1826118fc565b6116eb8185611925565b93506116fb818560208601611981565b61170481611b30565b840191505092915050565b600060c0830160008301516117276000860182611652565b506020830151848203602086015261173f82826116d6565b9150506040830151848203604086015261175982826116d6565b9150506060830151848203606086015261177382826116d6565b91505060808301516117886080860182611838565b5060a083015184820360a08601526117a082826116d6565b9150508091505092915050565b600060a0830160008301516117c56000860182611652565b50602083015184820360208601526117dd82826116d6565b915050604083015184820360408601526117f782826116d6565b9150506060830151848203606086015261181182826116d6565b9150506080830151848203608086015261182b82826116d6565b9150508091505092915050565b61184181611968565b82525050565b600060208201905081810360008301526118618184611661565b905092915050565b6000602082019050818103600083015261188381846117ad565b905092915050565b60006118956118a6565b90506118a182826119e6565b919050565b6000604051905090565b600067ffffffffffffffff8211156118cb576118ca611aed565b5b6118d482611b30565b9050602081019050919050565b6000819050602082019050919050565b600081519050919050565b600081519050919050565b6000602082019050919050565b600082825260208201905092915050565b600082825260208201905092915050565b600061194182611948565b9050919050565b600073ffffffffffffffffffffffffffffffffffffffff82169050919050565b6000819050919050565b82818337600083830152505050565b60005b8381101561199f578082015181840152602081019050611984565b838111156119ae576000848401525b50505050565b600060028204905060018216806119cc57607f821691505b602082108114156119e0576119df611a8f565b5b50919050565b6119ef82611b30565b810181811067ffffffffffffffff82111715611a0e57611a0d611aed565b5b80604052505050565b6000611a2282611968565b91507fffffffffffffffffffffffffffffffffffffffffffffffffffffffffffffffff821415611a5557611a54611a60565b5b600182019050919050565b7f4e487b7100000000000000000000000000000000000000000000000000000000600052601160045260246000fd5b7f4e487b7100000000000000000000000000000000000000000000000000000000600052602260045260246000fd5b7f4e487b7100000000000000000000000000000000000000000000000000000000600052603260045260246000fd5b7f4e487b7100000000000000000000000000000000000000000000000000000000600052604160045260246000fd5b600080fd5b600080fd5b600080fd5b600080fd5b6000601f19601f8301169050919050565b611b4a81611936565b8114611b5557600080fd5b50565b611b6181611968565b8114611b6c57600080fd5b5056fea2646970667358221220ae1a71adb3c772431e83d7662b8a073c8001c6df92877648589ecab203c1a69764736f6c63430008070033",
  "immutableReferences": {
    "83": [
      {
        "length": 32,
        "start": 4551
      }
    ]
  },
  "source": "// SPDX-License-Identifier: MIT\r\npragma solidity ^0.8.7;\r\n\r\nerror Not_Enough_ETHs();\r\n\r\ncontract Tweet {\r\n    struct TweetInfo {\r\n        string content;\r\n        address tweeter;\r\n        string picOfTweet;\r\n        uint timeofTweet;\r\n    }\r\n\r\n    struct UserInfo {\r\n        address account;\r\n        string name;\r\n        string photo;\r\n        string bio;\r\n        string backGroundPic;\r\n    }\r\n\r\n    struct TweetDetail {\r\n        address account;\r\n        string photo;\r\n        string name;\r\n        string content;\r\n        uint timeofTweet;\r\n        string picOfTweet;\r\n    }\r\n\r\n    constructor() {\r\n        owner = payable(msg.sender);\r\n    }\r\n\r\n    address payable private immutable owner;\r\n\r\n    TweetInfo[] private allOfTweets;\r\n\r\n    mapping(address => uint[]) private teetersOfUser;\r\n\r\n    mapping(address => UserInfo) private allOfUser;\r\n\r\n    function getUser(address account) public view returns (UserInfo memory) {\r\n        return allOfUser[account];\r\n    }\r\n\r\n    function modifyUserInfo(\r\n        string memory name,\r\n        string memory photo,\r\n        string memory backGroundPic,\r\n        string memory bio\r\n    ) public {\r\n        UserInfo storage currentUser = allOfUser[msg.sender];\r\n        currentUser.name = name;\r\n        currentUser.photo = photo;\r\n        currentUser.backGroundPic = backGroundPic;\r\n        currentUser.bio = bio;\r\n    }\r\n\r\n    function tweet(\r\n        string memory content,\r\n        string memory picOfTweet,\r\n        uint timeofTweet\r\n    ) public payable {\r\n        if (msg.value < 0.01 ether) {\r\n            revert Not_Enough_ETHs();\r\n        }\r\n        TweetInfo memory tweetInfo = TweetInfo({\r\n            content: content,\r\n            picOfTweet: picOfTweet,\r\n            tweeter: msg.sender,\r\n            timeofTweet: timeofTweet\r\n        });\r\n\r\n        uint[] storage tweets = teetersOfUser[msg.sender];\r\n        tweets.push(allOfTweets.length);\r\n        allOfTweets.push(tweetInfo);\r\n        owner.transfer(msg.value);\r\n    }\r\n\r\n    function queryTweetByAccount(\r\n        address account\r\n    ) public view returns (TweetDetail[] memory) {\r\n        uint[] memory tweetIndexs = teetersOfUser[account];\r\n        TweetDetail[] memory tweetDetails = new TweetDetail[](\r\n            tweetIndexs.length\r\n        );\r\n        UserInfo memory user = allOfUser[account];\r\n        for (uint i = 0; i < tweetIndexs.length; i++) {\r\n            TweetInfo memory userTweet = allOfTweets[tweetIndexs[i]];\r\n            tweetDetails[i] = TweetDetail({\r\n                account: account,\r\n                name: user.name,\r\n                photo: user.photo,\r\n                content: userTweet.content,\r\n                timeofTweet: userTweet.timeofTweet,\r\n                picOfTweet: userTweet.picOfTweet\r\n            });\r\n        }\r\n        return tweetDetails;\r\n    }\r\n\r\n    function queryAllTweet() public view returns (TweetDetail[] memory) {\r\n        TweetDetail[] memory tweetDetails = new TweetDetail[](\r\n            allOfTweets.length\r\n        );\r\n        for (uint i = 0; i < allOfTweets.length; i++) {\r\n            TweetInfo memory userTweet = allOfTweets[i];\r\n            UserInfo memory user = allOfUser[userTweet.tweeter];\r\n            tweetDetails[i] = TweetDetail({\r\n                account: userTweet.tweeter,\r\n                name: user.name,\r\n                photo: user.photo,\r\n                content: userTweet.content,\r\n                timeofTweet: userTweet.timeofTweet,\r\n                picOfTweet: userTweet.picOfTweet\r\n            });\r\n        }\r\n        return tweetDetails;\r\n    }\r\n}\r\n",
  "sourcePath": "D:\\code\\web3\\Twitter-Example\\contracts\\Tweet.sol",
  "compiler": {
    "name": "solc",
    "version": "0.8.7+commit.e28d00a7.Emscripten.clang"
  },
  "schemaVersion": "3.4.14",
  "updatedAt": "2023-07-27T13:08:09.748Z",
  "devdoc": {
    "kind": "dev",
    "methods": {},
    "version": 1
  },
  "userdoc": {
    "kind": "user",
    "methods": {},
    "version": 1
  }
}